{
  "_format": "hh-sol-artifact-1",
  "contractName": "Storage",
  "sourceName": "contracts/Storage.sol",
  "abi": [
    {
      "inputs": [],
      "name": "get",
      "outputs": [
        {
          "internalType": "uint256",
          "name": "",
          "type": "uint256"
        }
      ],
      "stateMutability": "view",
      "type": "function"
    },
    {
      "inputs": [],
      "name": "num",
      "outputs": [
        {
          "internalType": "uint256",
          "name": "",
          "type": "uint256"
        }
      ],
      "stateMutability": "view",
      "type": "function"
    },
    {
      "inputs": [
        {
          "internalType": "uint256",
          "name": "_num",
          "type": "uint256"
        }
      ],
      "name": "set",
      "outputs": [],
      "stateMutability": "nonpayable",
      "type": "function"
    }
  ],
  "bytecode": "0x608060405234801561001057600080fd5b50610176806100206000396000f3fe608060405234801561001057600080fd5b50600436106100415760003560e01c80634e70b1dc1461004657806360fe47b1146100645780636d4ce63c14610080575b600080fd5b61004e61009e565b60405161005b9190610104565b60405180910390f35b61007e600480360381019061007991906100cc565b6100a4565b005b6100886100ae565b6040516100959190610104565b60405180910390f35b60005481565b8060008190555050565b60008054905090565b6000813590506100c681610129565b92915050565b6000602082840312156100de57600080fd5b60006100ec848285016100b7565b91505092915050565b6100fe8161011f565b82525050565b600060208201905061011960008301846100f5565b92915050565b6000819050919050565b6101328161011f565b811461013d57600080fd5b5056fea26469706673582212203375eb41e81fb1d2fe67b9fcc66977311092f133bba25275adda864aa3c9d96264736f6c63430008000033",
  "linkReferences": {},
  "deployedLinkReferences": {}
}