{
  "_format": "hh-sol-artifact-1",
  "contractName": "Hero",
  "sourceName": "contracts/Hero.sol",
  "abi": [
    {
      "inputs": [
        {
          "internalType": "enum Hero.Class",
          "name": "class",
          "type": "uint8"
        }
      ],
      "name": "createHero",
      "outputs": [],
      "stateMutability": "payable",
      "type": "function"
    },
    {
      "inputs": [],
      "name": "generateRandom",
      "outputs": [
        {
          "internalType": "uint256",
          "name": "",
          "type": "uint256"
        }
      ],
      "stateMutability": "view",
      "type": "function"
    },
    {
      "inputs": [],
      "name": "getHeroes",
      "outputs": [
        {
          "internalType": "uint256[]",
          "name": "",
          "type": "uint256[]"
        }
      ],
      "stateMutability": "view",
      "type": "function"
    }
  ],
  "bytecode": "0x608060405234801561001057600080fd5b50610415806100206000396000f3fe6080604052600436106100345760003560e01c806302e4af01146100395780635e7e236d146100645780639a8d288214610080575b600080fd5b34801561004557600080fd5b5061004e6100ab565b60405161005b9190610356565b60405180910390f35b61007e600480360381019061007991906101d4565b6100de565b005b34801561008c57600080fd5b5061009561012b565b6040516100a29190610314565b60405180910390f35b600044426040516020016100c09291906102e8565b6040516020818303038152906040528051906020012060001c905090565b66b1a2bc2ec50000341015610128576040517f08c379a000000000000000000000000000000000000000000000000000000000815260040161011f90610336565b60405180910390fd5b50565b60606000803373ffffffffffffffffffffffffffffffffffffffff1673ffffffffffffffffffffffffffffffffffffffff1681526020019081526020016000208054806020026020016040519081016040528092919081815260200182805480156101b557602002820191906000526020600020905b8154815260200190600101908083116101a1575b5050505050905090565b6000813590506101ce816103cf565b92915050565b6000602082840312156101e657600080fd5b60006101f4848285016101bf565b91505092915050565b600061020983836102b3565b60208301905092915050565b600061022082610381565b61022a8185610399565b935061023583610371565b8060005b8381101561026657815161024d88826101fd565b97506102588361038c565b925050600181019050610239565b5085935050505092915050565b6000610280601e836103aa565b91507f4865726f206372656174696f6e20636f73747320302e303520657468657200006000830152602082019050919050565b6102bc816103bb565b82525050565b6102cb816103bb565b82525050565b6102e26102dd826103bb565b6103c5565b82525050565b60006102f482856102d1565b60208201915061030482846102d1565b6020820191508190509392505050565b6000602082019050818103600083015261032e8184610215565b905092915050565b6000602082019050818103600083015261034f81610273565b9050919050565b600060208201905061036b60008301846102c2565b92915050565b6000819050602082019050919050565b600081519050919050565b6000602082019050919050565b600082825260208201905092915050565b600082825260208201905092915050565b6000819050919050565b6000819050919050565b600381106103dc57600080fd5b5056fea26469706673582212203859eab9059e9530b250f94ea84bd1862881fc5deed793f32758ff231145ee9664736f6c63430008000033",
  "linkReferences": {},
  "deployedLinkReferences": {}
}