{
  "_format": "hh-sol-artifact-1",
  "contractName": "Counter",
  "sourceName": "contracts/Counter.sol",
  "abi": [
    {
      "anonymous": false,
      "inputs": [
        {
          "indexed": false,
          "internalType": "uint256",
          "name": "counter",
          "type": "uint256"
        }
      ],
      "name": "CounterInc",
      "type": "event"
    },
    {
      "inputs": [],
      "name": "count",
      "outputs": [],
      "stateMutability": "nonpayable",
      "type": "function"
    },
    {
      "inputs": [],
      "name": "getCounter",
      "outputs": [
        {
          "internalType": "uint32",
          "name": "",
          "type": "uint32"
        }
      ],
      "stateMutability": "view",
      "type": "function"
    }
  ],
  "bytecode": "0x608060405234801561001057600080fd5b506103a9806100206000396000f3fe608060405234801561001057600080fd5b50600436106100365760003560e01c806306661abd1461003b5780638ada066e14610045575b600080fd5b610043610063565b005b61004d6100f6565b60405161005a9190610266565b60405180910390f35b600080815480929190610075906102ea565b91905055506100bb6040518060400160405280600e81526020017f636f756e746572206973206e6f770000000000000000000000000000000000008152506000546100ff565b7feec7b728df2430a6685bba924a4a787b147d45a2b38034570f9fe9613a91ea446000546040516100ec919061024b565b60405180910390a1565b60008054905090565b610197828260405160240161011592919061021b565b6040516020818303038152906040527f9710a9d0000000000000000000000000000000000000000000000000000000007bffffffffffffffffffffffffffffffffffffffffffffffffffffffff19166020820180517bffffffffffffffffffffffffffffffffffffffffffffffffffffffff838183161783525050505061019b565b5050565b60008151905060006a636f6e736f6c652e6c6f679050602083016000808483855afa5050505050565b60006101cf82610281565b6101d9818561028c565b93506101e98185602086016102b7565b6101f281610362565b840191505092915050565b6102068161029d565b82525050565b610215816102a7565b82525050565b6000604082019050818103600083015261023581856101c4565b905061024460208301846101fd565b9392505050565b600060208201905061026060008301846101fd565b92915050565b600060208201905061027b600083018461020c565b92915050565b600081519050919050565b600082825260208201905092915050565b6000819050919050565b600063ffffffff82169050919050565b60005b838110156102d55780820151818401526020810190506102ba565b838111156102e4576000848401525b50505050565b60006102f58261029d565b91507fffffffffffffffffffffffffffffffffffffffffffffffffffffffffffffffff82141561032857610327610333565b5b600182019050919050565b7f4e487b7100000000000000000000000000000000000000000000000000000000600052601160045260246000fd5b6000601f19601f830116905091905056fea2646970667358221220a89879738318824fa56031adaeba090d2b56541581d7ed0cf6708163686d9f3c64736f6c63430008000033",
  "linkReferences": {},
  "deployedLinkReferences": {}
}